:020000040800F2
:1000000000100020970B0008DB140008E114000822
:10001000DB140008DB140008DB14000800000000FB
:10002000000000000000000000000000DB140008D9
:10003000DB14000800000000DB140008DB140008DB
:10004000DB140008DB140008DB140008DB140008D4
:1000500000000000DB140008DB140008DB140008BB
:10006000DB140008DB140008DB140008DB140008B4
:10007000DB140008DB140008DB140008DB140008A4
:10008000DB140008DB140008DB140008DB14000894
:10009000DB140008DB140008DB140008DB14000884
:1000A000371100085111000877110008911100085C
:1000B0009D110008B7110008D1110008DB140008D9
:1000C000DB140008DB140008DB140008DB14000854
:1000D000DB140008DB140008EB110008DB14000837
:1000E000DB140008DB140008DB14000825120008EC
:1000F0003F1200086D120008DB140008DB14000832
:10010000DB140008DB14000887120008DB14000869
:10011000DB140008DB140008A1120008BB12000861
:10012000DB140008DB140008DB140008DB140008F3
:10013000DB140008DB140008DB140008DB140008E3
:10014000DB140008DB140008DB140008DB140008D3
:10015000DB140008DB140008DB140008DB140008C3
:10016000DB140008DB140008DB140008DB140008B3
:10017000DB140008DB140008DB140008DB140008A3
:10018000DB140008DB140008000000000000000081
:10019000000000000000000000000000000000005F
:1001A000DB140008DB14000880B540B1DBB29940D5
:1001B0009A40036823EA02021143016080BD00F007
:1001C0006FFB80B5B0F5807F3FBF00F01F010122BB
:1001D00002FA01F140093FBF4EF20012CEF20002D6
:1001E00042F8201080BD00F038FB80B5F0283FBFFA
:1001F000182202EAC002FF2303FA02FE3FBF20F0EA
:1002000003004EF2004CCEF2000C50F80C303FBF11
:1002100023EA0E039140194340F80C1038BF80BD0B
:1002200000F01BFB10B578B30446806860B3016929
:10023000890706D5226D22B1E16C00209047A068A5
:1002400010B30169490706D5A26D22B1616D012085
:100250009047A068C0B10169090706D5226E22B196
:10026000E16D02209047A06870B10169C90606D50A
:10027000A26E22B1616E03209047A06820B101698F
:1002800021F01E01016110BD00F00AFB80B580B1B4
:10029000816871B10A69D20708BF80BD0A6922F07E
:1002A00001020A61816C19B1406CBDE880400847C9
:1002B00080BD00F0F5FA80B541F26810C2F200008E
:1002C000806808B1406A80BD00F0EAFA80B541F26A
:1002D0006810C2F20000806808B1343080BD00F0C0
:1002E000DFFAB0B541F26815EFF3108472B6C2F2CE
:1002F0000005A868A0B1016A21F00D010162FFF7B5
:10030000E5FF00210160A86850B1C16821F0020139
:10031000C160016921F00201016184F31088B0BD60
:1003200000F0BEFA41F22472EFF3108172B6C2F20D
:100330000002106858B1036813605368834204BF19
:10034000002353600022026081F310887047002070
:1003500081F31088704780B5EFF3108272B660B1F8
:10036000436803B11960416039B100230B60036831
:1003700003B9016082F3108880BD00F091FA10B5D6
:1003800041F22074C2F200042068B0B14169A1B109
:1003900009684FF27552CBF63B02914208D041F208
:1003A0002C501821C0F6000000F04BF9206820B155
:1003B0001030BDE8104001F09DB800F071FAFFF771
:1003C000DEBF002800F038812DE9F04F87B041F200
:1003D000307C00F10F01C2F2000C41F22474DCF811
:1003E000002041F2367B41F6340640F2000941F22A
:1003F000347741F22C7A01900809C2F20004C2F26B
:10040000000BC2F20006C2F20209C2F200074FF06E
:100410000608C2F2000A154600234FF0000E0390B2
:100420009542049340F0B5805FFA8EF0002863D0C7
:10043000012864D1029501F072F841F22070C2F2F5
:100440000000006848B1EFF3088000B9684641F247
:100450000001C2F2000100F018FA41F2000041F67A
:100460003401C2F20000C2F2000100F00EFA0020D6
:10047000CDE90500EFF3108072B6216880F3108893
:1004800049B3FFF74FFF054600F00CF905A82946D0
:10049000FFF761FFEEE700258BF80050A9EB06009F
:1004A0003978A9EB90100029A0EB060018BF0109CC
:1004B0008D4210D2DAF80020A90808EA4500515C04
:1004C00021FA00F000F00300032802D1284600F0D2
:1004D00027F90135E2E79BF800000128DBD0EFF3B4
:1004E000108072B6EFF3108172B6226881F3108823
:1004F0007AB180F31088BDE74FF0010E49E041F278
:1005000044500D21C0F60000744600F09AF8A6464B
:100510003BE0DDE905124FF0000C0025C4E90012B4
:1005200080F31088A9EB06003978A9EB9010002918
:10053000A0EB060018BF01098D4223D2DAF8002093
:10054000A90808EA4503545C24FA03F000F003000C
:10055000032804D0022808D0012809D010E0022086
:10056000984024EA0000505408E05FEACC7005D0BF
:10057000284600F079F94FF0010C01E04FF0000C33
:100580000135CFE74FF0020E029D41F2307CC2F2FE
:10059000000CA9EB06003A78A9EB9010002AA0EB1A
:1005A000060018BF0209A91A18BF2946DAF8000088
:1005B0008C0808EA4103045D24FA03F39B0706D084
:1005C00041F224744D1C0023C2F200040EE0049B8F
:1005D000954201F1010541F2247403F10103C2F2D5
:1005E000000408BF012303998B4202D0DCF80020ED
:1005F00016E703992B46CCF800504FF0060EA5EBFA
:10060000010CDAF80020012561460EEA4104A540FC
:100610008C08075D01318B4247EA050707554FF00B
:1006200002051046F1D106EB0C100021019A07B02B
:10063000BDE8F04F00F04ABF41F23570C2F2000051
:100640007047B0B5054641F251500C46C0F6000067
:10065000162100F008F82846214600F004F800F0C2
:100660000EF830BFFDE7B0B521EAE17504462DB1C3
:1006700014F8010B00F00CF8013DF8E7B0BD80B5AF
:100680000D2000F005F80A20BDE8804000F000B819
:10069000C1B244F20040C4F20000416001680906A2
:1006A000FCD57047B0B541F63401C2F20001884272
:1006B00021BF41F22C72C2F200021468844200D8B9
:1006C000B0BD401A0625820905EAD001A25C22FAD3
:1006D00001F18907F4D0000900F00FF8820805EA5B
:1006E0004001A25C22FA01F101F00301032908BFD5
:1006F000B0BDBDE8B04000F013B841F22C714FF02E
:10070000060CC2F20001096882080CEA40038A5C08
:100710000138DA4002F00302022AF5D001307047B6
:100720002DE9F04F91B0804601A8043000213C2211
:1007300000F0CCFE41F22C74062606EA48000321A4
:10074000C2F200044FEA980201FA00F0216841F673
:1007500034054FF0010AC2F20005CDF804808B5C2D
:1007600018438854BAF1010F72DBAAF1010ABAF1F9
:100770000F0F70D801A8216850F82A00830806EAF4
:100780004002CB5C05EB001823FA02F242F00202B1
:1007900002F003030201032B08BF0130C2EB001378
:1007A0001022A2EB001287089B46CF5D06EA4003A9
:1007B000103A013027FA03F303F003070BF110039B
:1007C000022FF0D040E0D8F80000A84224BFD4F8AF
:1007D0000090814504D8ABF1040B08F1040833E024
:1007E000401B820906EAD00119F8022022FA01F121
:1007F0008907F0D00009FFF780FF810806EA400270
:1008000019F8013023FA02F707F00307032FE2D0AB
:100810000327BAF1100F07FA02F242EA030209F8BD
:10082000012008D141F236714FF0100A0120C2F2C6
:1008300000010870CFE7BAF10F0F0CD801A941F8F9
:100840002A000AF1010AC6E7BBF1000FBBD189E714
:1008500011B0BDE8F08F00F000F841F267501221AE
:10086000C0F60000FFF7EDBE0621032201EA4001B9
:10087000800802FA01F141F22C72C2F20002126801
:10088000135C23EA010111547047B0B50C460546CC
:10089000A54204D255F8040BFFF704FFF8E7B0BDFA
:1008A00041F279501721C0F60000FFF7CABE41F2AD
:1008B0003870C2F20000D0E90012013142F10002AA
:1008C000C0E900127047B8B170B504463020FFF798
:1008D000DFFE7820FFF7DCFE082557265DB106EB2A
:1008E0001470210F0A2938BF01F13000FFF7D0FE44
:1008F000013D2401F2E770BD41F290500321C0F6A2
:100900000000FFF7B0BE41F22071C2F20001096899
:1009100009B1FFF7C7BE41F20001C2F20001FFF7C3
:10092000B4BF70B541F2387441F26815C2F20004E8
:10093000C2F20005EFF3108672B6FFF7BCFCD4E9F3
:100940000021AB68CBB11B6986F31088DB07F1D1BE
:1009500048F66813C0F20903A2FB034201FB03251A
:1009600041F24072C2F20002A0FB030112680023B0
:1009700000F0B0FC0019694170BDFFF791FF4EF621
:100980002858044641F29350CEF20008C0F6000009
:100990000D21D8F80070FFF766FE07F4806600208E
:1009A000B0EB547F08BF002E06D141F252701021E7
:1009B000C0F60000FFF757FEF80706D041F2A0503E
:1009C0001C21C0F60000FFF74EFEB80706D541F225
:1009D000BC501521C0F60000FFF745FE380706D5CC
:1009E00041F218601B21C0F60000FFF73CFEF8063C
:1009F00006D541F233601921C0F60000FFF733FE3F
:100A0000B80606D541F24C602E21C0F60000FFF773
:100A10002AFEF80506D541F2D1501521C0F6000096
:100A2000FFF721FEB80506D541F2E6501821C0F6C1
:100A30000000FFF718FE36B141F2FE501A21C0F651
:100A40000000FFF710FE380506D541F218601B21A3
:100A5000C0F60000FFF707FEF80406D541F2336048
:100A60001921C0F60000FFF7FEFDB80406D541F2DB
:100A70004C602E21C0F60000FFF7F5FDF80306D507
:100A800041F27A601521C0F60000FFF7ECFDB803D3
:100A900006D541F28F601721C0F60000FFF7E3FD95
:100AA000780306D541F2A6602421C0F60000FFF7C6
:100AB000DAFD380306D541F2CA601C21C0F60000F9
:100AC000FFF7D1FDF80106D541F2E6601721C0F627
:100AD0000000FFF7C8FDB80106D541F2FD600E2108
:100AE000C0F60000FFF7BFFD43F63B70C0F20F30C9
:100AF000074206D141F20B701221C0F60000FFF749
:100B0000B2FD380602D40025002002E0D8F80C50CF
:100B10000120C00709D041F21D701421C0F6000069
:100B2000FFF7A1FD2846FFF7CEFE380402D40025CA
:100B3000002002E0D8F810500120C00709D041F28F
:100B400031701821C0F60000FFF78DFD2846FFF731
:100B5000BAFED6B941F249700921C0F60000FFF78C
:100B600082FD2046FFF7AFFE9CB104F11800B0F102
:100B7000005F0AD3046841F26270C0F600000421ED
:100B8000FFF771FD2046FFF79EFEFFF778FD30BFAF
:100B9000FDE7FFF785FE2DE9F04F81B041F22070AF
:100BA00041F63401C2F20000C2F20001002281428B
:100BB00002D040F8042BFAE741F2000041F27071D4
:100BC00041F21C72C2F20000C0F60001C2F2000243
:100BD000824204D051F8043B40F8043BF8E741F26C
:100BE00034700121C2F200000026017041F6340089
:100BF00040F20001C2F20000C2F202010A1AA1EBA7
:100C0000921041F22C71C2F2000192090860002199
:100C100000F05CFC41F26870C0F600000568182026
:100C2000FFF7CFFB044625F00300FFF7CAFBB6EB46
:100C3000950F1FBF4FF27551CBF63B01016060610C
:100C400018BF232D01D8FFF708FEA908002600EBE6
:100C5000810040F66561C0F6000140F8241D41F2B4
:100C6000ED41C0F60001206101622146466041F27B
:100C70002470C2F20000FFF76EFB48F6671441F2E1
:100C80004875C0F20904C2F200054FF000094FF0A8
:100C9000000841F24470C2F20000006870B3FFF730
:100CA00040FE814641F24470C2F20000884601686D
:100CB00021B3D5E900202F46D1E90253B9EB020454
:100CC00068EB0006641B9E4101DA002611E0521910
:100CD00058410026C7E9002041F244720868C2F278
:100CE0000002106041F22470C2F200000E60FFF7B3
:100CF00032FB48F667143D46C0F20904FFF712FBC9
:100D000048B141F22077C2F200073860006900F074
:100D1000F6FB3E60BDE741F24470C2F2000000689D
:100D2000E8B1D5E90012D0E90203B1EB090162EBA9
:100D3000080211EB000A42EB030B42F210714FEA7A
:100D40000B10D1EB0A1140EA1A7070F10000A0DB21
:100D5000B4EB0A0076EB0B0003D220BF99E720BF6B
:100D600097E7FFF7A8FA074641F24070C2F2000089
:100D7000611C02680023D01BA0FB010100F0AAFA4D
:100D8000BAEB00007BEB010068D241F268141C2032
:100D9000C2F20004206440F66B60C0F600002065DB
:100DA000A06800285CD0016921F002010161206C7B
:100DB000C121FFF71AFA206CFFF703FAA068002898
:100DC0004ED0C16841F00201C160416C41F4004164
:100DD000416441F24070C2F200000568FFF776FA04
:100DE00021460446886800283AD0EFF3108172B695
:100DF000009160228169002362F307018161AAFBEF
:100E0000050148F66812C0F209020BFB051100F05B
:100E100061FA3844206041F26810C2F20000806834
:100E2000F0B1016A41F0010121F00C010162416958
:100E300041F002014161016921F002010161009864
:100E400080F3108820BFFFF74CFA48F6671441F290
:100E50004875C0F20904C2F200051AE720BF18E77E
:100E6000FFF71EFD80B500F002F8FFF73ABA80B533
:100E700000F002F800F03AF9F0B581B043F600074F
:100E8000C4F20207386840F0010038603868800713
:100E9000FCD500204FF6FF72B860CFF6F6623968D5
:100EA0001140396043F21001C2F2004179603968A3
:100EB00021F480213960F8604FF48030386040F2CE
:100EC000FF40396818B1013811F40031F9D03868A1
:100ED000800300D4FEE7386C40F08050386447F25D
:100EE0000000C4F20000016841F480410160B9686B
:100EF000B960B96841F40041B960B96841F4A051E2
:100F0000B96045F20841C0F240717960396841F03A
:100F10008071396039688901FCD540F20561C7F8F4
:100F20000014B96821F00301B960B96841F0020109
:100F3000B960B96801F00C010829FAD1396B00F5E4
:100F4000C8340322042341F480113963396C2046EC
:100F500041F400313964396B41F0010139630221F8
:100F6000FFF722F90C250221C4F20205281F0322F3
:100F70000423FFF719F92846012103220423FFF770
:100F800013F905F1140607210F2208233046FFF755
:100F90000BF9386B02210322062340F0010038636D
:100FA0002046FFF701F9286807210F220C2320F0C3
:100FB000C000286030460C24FFF7F6F844F20840E1
:100FC0004FF4B671C4F20000C022016042F22C015D
:100FD00041604EF22440CEF20000016862F31741F6
:100FE00001604FF6E0414022CFF6FF7142504FF6CC
:100FF0006641386C40F0010038641420C4F20000EF
:10100000446141F268148161C2F20004016841F058
:10101000010101604FF08040016841F081010160F1
:10102000A06800B31C22C16AE263026922F00102D7
:101030000261481C41F24071C2F20001086040F6B2
:10104000AF00C0F60000C121A064E06BFFF7CDF84F
:10105000E06BFFF7B6F8A06828B1C16841F0010164
:10106000C16001B0F0BDFFF71BFCF0B581B041F2EB
:101070002070C2F200000768B7B34DF25061002043
:10108000C0F2DC11C7E90210FFF74BFC41F24472D9
:10109000C2F2000212682AB941F24873C2F2000398
:1010A000C3E9000141F24470C2F20000A2B1D2E9EA
:1010B0000241D7E902532E1B73EB010608D32A1B0A
:1010C00063EB0101C7E90221006868B10268EDE73E
:1010D000661B9941C2E9026101683960076001B08D
:1010E000BDE8F040FFF74BB9FFF7DAFB70B543F608
:1010F000300040F60044C4F20200C4F20204016869
:101100000322182341F00801016020460121FFF766
:101110004BF804F10800022103221823FFF744F8DA
:101120004FF080554FF48056A561FFF79EFFA661F2
:10113000FFF79BFFF8E710B541F2C034C2F200049C
:101140002046FFF76FF82046BDE81040FFF79EB835
:1011500010B541F23844C2F200042046FFF762F8AD
:1011600041F2F000C2F20000FFF790F82046BDE81F
:101170001040FFF78BB810B541F2B044C2F2000442
:101180002046FFF74FF82046BDE81040FFF77EB835
:1011900041F2F000C2F20000FFF744B810B541F28E
:1011A0006814C2F200042046FFF73CF82046BDE870
:1011B0001040FFF76BB810B541F2E014C2F2000422
:1011C0002046FFF72FF82046BDE81040FFF75EB835
:1011D00010B541F25824C2F200042046FFF722F86D
:1011E0002046BDE81040FFF751B844F2044041F2F8
:1011F0009071C4F20000C2F20001006891F88020F2
:1012000091F88130D21AD2B2802A08BF704791F883
:101210008020013281F8802091F8802002F07F0246
:101220008854704710B541F22854C2F20004204699
:10123000FEF7F8FF2046BDE81040FFF727B8B0B52D
:1012400041F24834C2F200042046FEF7EBFF41F2BF
:10125000A055C2F200052846FEF7E4FF2046FFF73E
:1012600015F82846BDE8B040FFF710B810B541F2B8
:101270001864C2F200042046FEF7D4FF2046BDE801
:101280001040FFF703B810B541F2D024C2F20004B9
:101290002046FEF7C7FF2046BDE81040FEF7F6BF28
:1012A00010B541F20004C2F200042046FEF7BAFF76
:1012B0002046BDE81040FEF7E9BF10B541F27804C2
:1012C000C2F200042046FEF7ADFF2046BDE8104004
:1012D000FEF7DCBF1CB50024009400F001F81CBD33
:1012E0002DE9F04FDDF824C079B1C2B163B3B1FA92
:1012F00081F4B3FA83F52C1B202C4CD3BCF1000FE6
:1013000018BFCCE90001002070E0BBB30021BCF1A4
:10131000000F18BFCCE900010020BDE8F08F002BC2
:101320003FD0002856D05C1E234262D1BCF1000F92
:101330001CBF04EA0102CCE9000293FAA3F0B0FA60
:1013400080F021FA00F051E0541E224230D1BCF16D
:10135000000F03D000230440CCE90043012A00F031
:10136000938092FAA2F2B2FA82F2C2F12003D04044
:1013700001FA03F3D1401843BDE8F08FBCF1000F30
:1013800006D0B0FBF2F3002103FB1203CCE90031DD
:10139000B0FBF2F02AE004F10109B9F1200F11D0FD
:1013A00031E00020BCF1000F18BFCCE900001DE0C7
:1013B000B1FA81F4B2FA82F52C1B04F12109B9F1DA
:1013C000200F63D14FF020094FF0000A4FF0000EBC
:1013D0000E4624E0BCF1000F06D0B1FBF3F2002072
:1013E00002FB1312CCE90002B1FBF3F00021BDE8CF
:1013F000F08FB1FA81F4B3FA83F52C1B1F2CBFF4E4
:101400007DAF04F10109C4F11F0420FA09F621FAA5
:1014100009FE01FA04F7A0403E434FF0000A4FF0E6
:10142000000B4FF00108B9F1000F1ED0F10F76004C
:10143000A9F1010941EA4E0146EAD076CD43F443D1
:10144000A41845EB030402EAE47703EAE475F61B0B
:1014500061EB050E08EAE4714BEA4A044FEADA75DB
:1014600045EA4000A2468B46DDE740004FEADA71CC
:101470004FEA4A02BCF1000F18BFCCE9006E0143ED
:1014800022F0010040EA0B00BDE8F08FB9F11F0F18
:101490000AD8C9F1200720FA09F421FA09FE01FA55
:1014A00007F6B8402643B8E7C9F14007A9F1200480
:1014B00020FA04FE01FA07F600FA07FA46EA0E08D7
:1014C00021FA04F64FF0000E4046A8E700239A42A6
:1014D00008BF7047C1540133F9E720BFFFF7FDBFD4
:1014E000684600231B689D46FFF749FA2846A04737
:1014F000FEF765FF69462439016000F004B880F307
:10150000098800F000B82DE9F04FEFF314800223B2
:10151000584080F31488BFF36F8FBDE8F08F2DE93A
:10152000F04F6846FFF7EFF908B000BD676F726FC4
:101530007574696E6520737461636B206F76657274
:10154000666C6F776F7574206F66206D656D6F7256
:101550007970616E69633A2072756E74696D652089
:101560006572726F723A20696E646578206F757467
:10157000206F662072616E67656E696C20706F699E
:101580006E7465722064657265666572656E63650A
:101590006E696C666174616C206572726F723A205C
:1015A000696E737472756374696F6E2061636365CD
:1015B00073732076696F6C6174696F6E64617461B6
:1015C000206163636573732076696F6C6174696F02
:1015D0006E696E737472756374696F6E2062757371
:1015E000206572726F726461746120627573206528
:1015F00072726F7220287072656369736529646105
:10160000746120627573206572726F722028696D33
:101610007072656369736529207768696C652075E8
:101620006E737461636B696E67206578636570744F
:10163000696F6E207768696C6520737461636B698C
:101640006E6720657863657074696F6E206475726B
:10165000696E6720666C6F6174696E672D706F6963
:101660006E74206C617A7920737461746520707275
:1016700065736572766174696F6E756E64656669AF
:101680006E656420696E737472756374696F6E69D8
:101690006C6C6567616C20757365206F662074687B
:1016A000652045505352696C6C6567616C206C6FA6
:1016B0006164206F66204558435F52455455524E31
:1016C00020746F20746865205043636F70726F637D
:1016D0006573736F72206163636573732076696FDE
:1016E0006C6174696F6E756E616C69676E6564209C
:1016F0006D656D6F7279206163636573736469767C
:10170000696465206279207A65726F756E6B6E6FA1
:10171000776E2068617264206661756C74207769E9
:101720007468206661756C7420616464726573739B
:1017300020207769746820627573206661756C7407
:101740002061646472657373202077697468207304
:10175000703D737461636B206F766572666C6F7732
:101760003F202070633DD4D4A000000000000000A2
:1017700040380240100000000010004050170020C8
:1017800000000000000000005417002000000000CE
:1017900000000000581700200000000000000000BA
:1017A0005C170020000000000000000000000000A6
:1017B0000000000000000000000000000000000029
:1017C0000000000000000000000000000000000019
:1017D0000000000000000000000000000000000009
:1017E00000BD01050000000040380240200000005C
:1017F00000140040601700200000000000000000FE
:10180000641700200000000000000000681700209E
:1018100000000000000000006C1700200000000025
:1018200000000000000000000000000000000000B8
:1018300000000000000000000000000000000000A8
:101840000000000000000000000000000000000098
:10185000000000000000000000BD010500000000C5
:1018600044380240010000000000014090160020B2
:101870000200000002000000941600200200000098
:101880000200000098160020020000000200000084
:101890009C16002002000000020000000000000072
:1018A0000000000000000000000000000000000038
:1018B0000000000000000000000000000000000028
:1018C0000000000000000000000000000000000018
:1018D000007A030A000000004038024001000000C6
:1018E00000000040A01600200300000003000000DC
:1018F000A81600200200000002000000AC16002024
:101900000200000002000000B016002002000000EB
:1019100002000000000000000000000000000000C5
:1019200000000000000000000000000000000000B7
:1019300000000000000000000000000000000000A7
:10194000000000000000000000BD010500000000D4
:10195000403802400200000000040040B41600209D
:101960000300000003000000BC160020030000007C
:1019700003000000C4160020020000000200000066
:10198000C816002002000000020000000000000055
:101990000000000000000000000000000000000047
:1019A0000000000000000000000000000000000037
:1019B0000000000000000000000000000000000027
:1019C00000BD010500000000403802400400000096
:1019D00000080040CC1600200200000002000000B9
:1019E000D01600200200000002000000D4160020E3
:1019F0000200000002000000D816002002000000D3
:101A000002000000000000000000000000000000D4
:101A100000000000000000000000000000000000C6
:101A200000000000000000000000000000000000B6
:101A3000000000000000000000BD010500000000E3
:101A40004038024008000000000C0040DC16002076
:101A50000100000001000000E0160020010000006D
:101A600001000000E4160020010000000100000059
:101A7000E816002001000000010000000000000046
:101A80000000000000000000000000000000000056
:101A90000000000000000000000000000000000046
:101AA0000000000000000000000000000000000036
:101AB00000BD0105000000004438024002000000A3
:101AC00000040140EC1600200200000002000000AB
:101AD000F01600200200000002000000F4160020B2
:101AE0000200000002000000F816002002000000C2
:101AF00002000000000000000000000000000000E4
:101B000000000000000000000000000000000000D5
:101B100000000000000000000000000000000000C5
:101B20000000000000000000007A030A000000002E
:101B3000443802400000010000400140FC16002033
:101B40000200000002000000001700200200000058
:101B500002000000701700200000000000000000DC
:101B600074170020000000000000000000000000CA
:101B70000000000000000000000000000000000065
:101B80000000000000000000000000000000000055
:101B90000000000000000000000000000000000045
:101BA000007A030A000000004438024000000200EE
:101BB0000044014004170020020000000200000061
:101BC0007817002000000000000000007C170020B3
:101BD000000000000000000080170020000000004E
:101BE00000000000000000000000000000000000F5
:101BF00000000000000000000000000000000000E5
:101C000000000000000000000000000000000000D4
:101C10000000000000000000007A030A000000003D
:101C2000443802400000040000480140081700202A
:101C300002000000020000008417002000000000E5
:101C400000000000881700200000000000000000D5
:101C50008C170020000000000000000000000000C1
:101C60000000000000000000000000000000000074
:101C70000000000000000000000000000000000064
:101C80000000000000000000000000000000000054
:101C9000007A030A000000004038024040000000C3
:101CA000001800400C170020020000000200000095
:101CB000101700200200000002000000141800208D
:101CC00000000000000000001818002000000000C4
:101CD0000000000000000000000000000000000004
:101CE00000000000000000000000000000000000F4
:101CF00000000000000000000000000000000000E4
:101D0000000000000000000000BD01050000000010
:101D10004038024080000000001C004014170020E2
:101D200002000000020000001C180020000000005B
:101D3000000000002018002000000000000000004B
:101D40002418002000000000000000000000000037
:101D50000000000000000000000000000000000083
:101D60000000000000000000000000000000000073
:101D70000000000000000000000000000000000063
:101D800000BD0105000000004038024000010000D5
:101D90000020004018170020020000000200000090
:101DA0002818002000000000000000002C1800206F
:101DB00000000000000000003018002000000000BB
:101DC0000000000000000000000000000000000013
:101DD0000000000000000000000000000000000003
:101DE00000000000000000000000000000000000F3
:101DF000000000000000000000BD01050000000020
:101E00000801490109014B010A014D010B014E0175
:101E1000000105010F0100000101130102011A0177
:101E200003011B010602140226020000070215022C
:101E300027020000100228021102290216023C02A9
:101E400017023D0218023E0219023F027A02000008
:101E50007B0200007C020000800200002603850354
:101E6000270386032803870329038203020345030C
:101E70000303460318035603190357031E09760983
:0C1E80001F0979090609580907095909CA
:00000001FF
